:020000040000fa
:10000000f87f0020c52200004323000043230000a6
:1000100000000000000000000000000000000000e0
:10002000000000000000000000000000432300006a
:10003000000000000000000043230000ff1d00003e
:100040004323000043230000432300004323000018
:1000500043230000850800004323000043230000e1
:1000600043230000432300004323000043230000f8
:1000700043230000432300004323000043230000e8
:1000800043230000432300004323000043230000d8
:1000900043230000432300004323000043230000c8
:1000a00043230000432300004323000043230000b8
:1000b00043230000432300004323000043230000a8
:1000c0004323000043230000432300004323000098
:1000d0004323000043230000432300004323000088
:1000e0004323000043230000432300004323000078
:1000f0004323000043230000432300004323000068
:100100004323000043230000432300004323000057
:100110004323000043230000432300004323000047
:100120004323000043230000432300004323000037
:100130004323000043230000432300004323000027
:100140004323000043230000432300004323000017
:0c01500043230000432300004323000071
:020000040000fa
:10015c00f8b5c046f8bc08bc9e467047c5230000e5
:10016c00f8b5c046f8bc08bc9e467047a1230000f9
:020000040000fa
:10017c0080b582b000af0200fb1d1a70fb1d1b780e
:10018c007f2b12d8fb1d1b781a001f231a4011005d
:10019c004ef20013cef20003fa1d127852b252093d
:1001ac000120884001009200d150c046bd4602b0eb
:1001bc0080bd90b583b000af02003960fb1d1a7092
:1001cc00fb1d1b787f2b2fd84ef20013cef20003b1
:1001dc00fa1d127852b29208c0329200d358fa1d0e
:1001ec001278110003220a40d200ff2191400a002c
:1001fc00d2431a4010003b689b01ff221a40fb1da2
:10020c001b78190003230b40db009a4011004ef2bf
:10021c000013cef20003fa1d127852b29208014379
:10022c00c0329200d15037e04ef60053cef20003ac
:10023c00fa1d127811000f220a40083a9208063271
:10024c0092009b1804331b68fa1d127811000322cc
:10025c000a40d200ff2191400a00d2431a401000fc
:10026c003b689b01ff221a40fb1d1b7819000323de
:10027c000b40db009a404ef60053cef20003f91d02
:10028c0009780c000f2121400839890802430631f6
:10029c0089005b1804331a60c046bd4603b090bd9c
:1002ac0080b582b000af00237b6040f20043c4f203
:1002bc00000301229a7140f20043c4f200030222af
:1002cc009a7000e0c04640f20043c4f200039b79f0
:1002dc00dbb21a0001231340002bf3d040f2004391
:1002ec00c4f2000301229a7145f20003c4f2001318
:1002fc0004225a6041f60003c4f2000340f20232b9
:10030c001a6200e0c04641f60003c4f20003da684a
:10031c008023db021340002bf4d041f20003c4f223
:10032c00000300221a8600e0c04641f20003c4f22a
:10033c0000031a6980235b041340002bf4d046f2af
:10034c002003c0f280031b687b607a68fc23db050a
:10035c0013407b607b68db0b7b607b6840f2002288
:10036c0013437b6041f20003c4f200037a685a63c2
:10037c0000e0c04641f20003c4f200031a69802376
:10038c005b041340002bf4d041f20003c4f20003d1
:10039c001b8e9ab241f20003c4f2000302210a43fd
:1003ac0092b21a8600e0c04641f20003c4f2000388
:1003bc001a6980235b041340002bf4d041f60043f0
:1003cc00c4f2000340f205129a6200e0c04641f606
:1003dc000043c4f200035b6810221340002bf5d1dc
:1003ec0041f60043c4f2000340f20712c0f20202cd
:1003fc001a6200e0c04641f60043c4f200035b6899
:10040c0004221340002bf5d1c046bd4602b080bd7e
:10041c0080b500af41f60043c4f20003dc2240215a
:10042c009950c04641f60043c4f20003dc229b58ad
:10043c009b01002bf6d041f60043c4f200230122ad
:10044c001a60c04641f60043c4f200231b69012226
:10045c001340002bf6d141f60043c4f200230022d6
:10046c001a6041f60043c4f2002310221a6041f6d0
:10047c000043c4f2002340f200721a6041f60043bc
:10048c00c4f2002301221a7341f60043c4f2002384
:10049c001a6841f60043c4f2002302210a431a6091
:1004ac00c046bd4680bd80b500af41f60043c4f2e6
:1004bc00000390224221995000e0c04641f60043cf
:1004cc00c4f2000390229b5842221340002bf4d01c
:1004dc0042f60023c4f2000301221a7000e0c04669
:1004ec0042f60023c4f200035b6801221340002b88
:1004fc00f5d142f60023c4f200030f225a63c04622
:10050c00bd4680bd80b500af42f60023c4f20003a7
:10051c001b78dab242f60023c4f2000302210a432c
:10052c00d2b21a7000e0c04642f60023c4f20003b7
:10053c005b6802221340002bf5d1c046bd4680bd3e
:10054c0080b500af40f20023c4f2002301221a70e0
:10055c00c046c046c046c046bd4680bd80b500af53
:10056c0043f20023c4f200039a6843f20023c4f25e
:10057c00000348f200010a439a6043f20023c4f2dc
:10058c0000034f229b5cdab243f20023c4f2000357
:10059c0002210a43d1b24f229954c046bd4680bdb8
:1005ac0080b500af41f60043c4f2002380225a719b
:1005bc00c04641f60043c4f200231b6904221340d9
:1005cc00002bf6d141f60043c4f200239b8a9bb268
:1005dc001800bd4680bdb0b500af40f20003c2f2ba
:1005ec0000031b78042b00d941e19a00a14bd318ce
:1005fc001b689f4643f20023c4f2000348f200023a
:10060c005a6134e141f60043c4f2002345f68e32c0
:10061c009a83c04641f60043c4f200231b69402272
:10062c001340002bf6d1fff7bbff0300180001f0bd
:10063c0036ff04000d0041f60043c4f200239b8bef
:10064c009bb2180001f02bff4cf6cd42ccf6cc42fd
:10065c004cf6cc43c3f6ec7301f025fd02000b0005
:10066c002000290001f0d5fe030033b143f2002332
:10067c00c4f2000348f200025a61fff791ff030035
:10068c00180001f00cff04000d0041f60043c4f209
:10069c0000239b8b9bb2180001f001ff4cf6cd425e
:1006ac00ccf6cc424cf6cc43c3f6ec7301f0fbfc1d
:1006bc0002000b002000290001f08cfe030003b99e
:1006cc00d5e043f20023c4f2000348f200029a6121
:1006dc00cde041f60043c4f2002342f6c7529a83a0
:1006ec00c04641f60043c4f200231b69402213406c
:1006fc00002bf6d1fff754ff0300180001f0cffeda
:10070c0004000d0041f60043c4f200239b8b9bb206
:10071c00180001f0c4fe49f69a12c9f6991249f66e
:10072c009913c3f6e97301f0befc02000b00200024
:10073c00290001f06efe030033b143f20023c4f232
:10074c00000348f200025a61fff72aff0300180069
:10075c0001f0a5fe04000d0041f60043c4f2002395
:10076c009b8b9bb2180001f09afe49f69a12c9f6bf
:10077c00991249f69913c3f6e97301f094fc02003f
:10078c000b002000290001f025fe030003b96ee0e8
:10079c0043f20023c4f2000348f200029a6166e0bf
:1007ac0041f60043c4f2002341f678329a83c046e6
:1007bc0041f60043c4f200231b6940221340002b76
:1007cc00f6d1fff7edfe0300180001f068fe0400ff
:1007dc000d0041f60043c4f200239b8b9bb2180022
:1007ec0001f05dfe00220023c3f6e07301f05bfc18
:1007fc0002000b002000290001f00bfe030033b1b6
:10080c0043f20023c4f2000348f200025a61fff7de
:10081c00c7fe0300180001f042fe04000d0041f673
:10082c000043c4f200239b8b9bb2180001f037feef
:10083c0000220023c3f6e07301f035fc02000b002c
:10084c002000290001f0c6fd030003b90fe043f2bc
:10085c000023c4f2000348f200029a6107e043f25d
:10086c000023c4f2000348f200029a61c046c0465d
:10087c00bd46b0bdf824000080b500af40f29a230d
:10088c00c2f200031b889bb2032293439ab240f23c
:10089c009a23c2f200031a8042f60023c4f200032a
:1008ac009b6b0422134073b940f29a23c2f20003eb
:1008bc001b889bb2012213439ab240f29a23c2f2d4
:1008cc0000031a800de040f29a23c2f200031b8849
:1008dc009bb2022213439ab240f29a23c2f2000353
:1008ec001a8042f60023c4f200035a6942f6002330
:1008fc00c4f2000304210a435a61c046bd4680bdc0
:10090c0080b500af43f20023c4f200035a6843f2ef
:10091c000023c4f20003802109040a435a6043f205
:10092c000023c4f2000357229b5cdab243f200238b
:10093c00c4f2000307210a43d1b25722995443f25f
:10094c000023c4f200039a6943f20023c4f20003ab
:10095c0001210a439a6143f20022c4f2000243f2dd
:10096c000023c4f200033b21525cd1b23b229954c8
:10097c0042f60023c4f200031a6b42f60023c4f2c1
:10098c00000304210a431a6342f60023c4f2000355
:10099c00da6942f60023c4f200030c490a40da611a
:1009ac0042f60023c4f20003da6942f60023c4f2d3
:1009bc00000340f600310a43da6142f60023c4f228
:1009cc00000304221a61c046bd4680bdfff0ffff44
:1009dc0080b582b000afba1d40f29a23c2f2000378
:1009ec001b88138040f29a23c2f2000300221a8063
:1009fc00bb1d1b881800bd4602b080bd80b500af82
:100a0c00bff35f8f62b603210520fff7d2fb0123f2
:100a1c005b4203211800fff7ccfb0520fff7a8fb76
:100a2c0001235b421800fff7a3fbc046bd4680bd07
:100a3c0080b500af43f20023c4f2000353229b5c49
:100a4c00dab243f20023c4f2000302210a43d1b20a
:100a5c005322995443f20023c4f200039a6843f2e0
:100a6c000023c4f20003802109030a439a6043f275
:100a7c000023c4f200039a6943f20023c4f200037a
:100a8c00802109030a439a6143f20023c4f2000354
:100a9c0052229b5cdab243f20023c4f2000307211a
:100aac000a43d1b25222995443f20023c4f20003f8
:100abc005a6843f20023c4f200038021c9020a439e
:100acc005a6043f20023c4f200035a6943f2002334
:100adc00c4f200038021c9020a435a6143f2002286
:100aec00c4f2000243f20023c4f200033921525c29
:100afc00d1b239229954c046bd4680bd80b500aff5
:100b0c00fff7cefbfff71cfdfff7cdfcfff780fcda
:100b1c00fff7f6fefff78cfffff720fd00f018f84b
:100b2c00fff7f0fc01f0b9f9fff768ffc046bd46ce
:100b3c0080bd80b582b000af3b00180001f0e5f934
:100b4c003b00180000f046fac046bd4602b080bd1e
:020000040000fa
:100b5c0080b500af40f60003c4f20003da6940f63a
:100b6c000003c4f2000310210a43da6141f600438a
:100b7c00c4f20003d02242219950c04641f60043f2
:100b8c00c4f20003d0229b5840221340002bf5d016
:100b9c0040f2ec23c2f200032c220021180001f0d9
:100bac00b9fc40f2ec23c2f2000341f20002c4f2a1
:100bbc0000221a6041f20003c4f2002301221a60e1
:100bcc00c04641f20003c4f20023db69012213404a
:100bdc00002bf6d141f20003c4f2002304221a6068
:100bec0041f20003c4f200231a6841f20003c4f27c
:100bfc0000238021c9050a431a6041f20003c4f2a4
:100c0c0000231a6841f20003c4f200238021490337
:100c1c000a431a6041f20002c4f2002241f20003be
:100c2c00c4f2002352685a6041f20003c4f200235c
:100c3c001a6841f20003c4f20023802149040a43dc
:100c4c001a6041f20002c4f2002241f20003c4f225
:100c5c00002352685a6041f20002c4f2002241f2b1
:100c6c000003c4f2002312681a6041f20002c4f2bd
:100c7c00002241f20003c4f2002312681a6041f210
:100c8c000002c4f2002241f20003c4f200235268b5
:100c9c005a6041f20002c4f2002241f20003c4f295
:100cac00002352685a6041f20002c4f2002241f261
:100cbc000003c4f2002392689a6041f20003c4f26c
:100ccc000023404a9a8140f2ec23c2f20003002236
:100cdc005a6240f2ec23c2f2000344f61c62c0f2ea
:100cec000e029a6241f20003c4f200235a6841f2e8
:100cfc000003c4f20023c32109040a435a60c0460e
:100d0c0041f20003c4f20023db6904221340002be0
:100d1c00f6d143f20023c4f20003c8229b5cdab282
:100d2c0043f20023c4f2000303210a43d1b2c822c8
:100d3c00995443f20023c4f20003b4229b5cdab250
:100d4c0043f20023c4f2000303210a43d1b2b422bc
:100d5c00995443f20023c4f20003c9229b5cdab21b
:100d6c0043f20023c4f2000303210a43d1b2c92287
:100d7c00995443f20023c4f20003b4229b5cdab210
:100d8c0043f20023c4f2000330210a43d1b2b4224f
:100d9c00995441f20003c4f200231a6841f2000393
:100dac00c4f2002302210a431a60c04641f2000338
:100dbc00c4f20023db6902221340002bf6d1c0469b
:100dcc00bd4680bd05c5ffff80b582b000af786021
:100ddc007b685b6963b17b685b690122da807b6845
:100dec005b697a68128c92b21a817b6800225a6114
:100dfc007b6800229a617b680022da617b680022a2
:100e0c001a84c046bd4602b080bd90b587b000af15
:100e1c00786039601623fb1800221a801523fb1802
:100e2c0000221a707b681b681b7edbb21a00012340
:100e3c001340002b50d07b681b8a9bb283b17b681c
:100e4c00db68591c7a68d1601b78dab27b681b6846
:100e5c009a627b681b8a9bb2013b9ab27b681a82ae
:100e6c007b681b8a9bb2002b36d17b680022da6030
:100e7c007b681b899bb22bb37b685b681a687b68a9
:100e8c00da607b685b689b889ab27b681a827b68a5
:100e9c005b6808331a007b685a607b681b899bb2bd
:100eac00013b9ab27b681a817b68db681bb17b685b
:100ebc001b8a9bb283b97b680022da607b680022b4
:100ecc001a8209e07b681b6801221a757b68002274
:100edc005a607b680022da607b681b681b7edbb281
:100eec001a000423134073b17b681b685b8b9ab2a6
:100efc001623fb1836490a431a807b681b689a6aca
:100f0c001523fb181a707b685b69002b59d01623cc
:100f1c00fb181b8848f20302134048f2000293426c
:100f2c0013d17b685b691a687b681b8c9bb2591c5c
:100f3c0088b279680884d3181522ba1812781a70f6
:100f4c007b683a68183303ca03c37b681b685b8be6
:100f5c009bb21ab21623fb1800215b5ef7210b40e3
:100f6c001bb213431ab27b681b6892b25a837b681c
:100f7c001b8c9ab27b685b699b889bb29a4204d3a8
:100f8c007b681800fff720ff1ce07b681b8c9bb272
:100f9c00cbb17b6818331a0039680c243b19180044
:100fac0000f0f7ff7b6824331a003b19110018007e
:100fbc0000f0f3fe031e06db7b681800fff704ff4e
:100fcc0000e0c046c046c046bd4607b090bdc04616
:100fdc000080ffff80b582b000af78607a6840f285
:100fec00ec23c2f2000311001800fff70effc046fd
:100ffc00bd4602b080bd80b582b000af78607b6822
:10100c001b8a9bb25bb97b681b899bb23bb97b6823
:10101c001b681b7edbb21a00012313400bb90123a2
:10102c0000e000231a1c01231340dbb21800bd465c
:10103c0002b080bd80b588b000aff860b9607a604e
:10104c001e23fb18082252421a80bb680bb17b6826
:10105c000bb901233ae07b68202b01d9002335e042
:10106c00fb681800fff7c7ff03000bb100232de04e
:10107c000023bb6100237b611ce0bb69db00ba6809
:10108c00d3189b881e22ba1812889a4201d20023c8
:10109c001ce0bb69db00ba68d3189a881e217b1848
:1010ac00791809888a1a1a807b6901337b61bb69bc
:1010bc000133bb61ba697b689a42ded3fb68ba68bc
:1010cc005a607b689ab2fb681a8101231800bd46ee
:1010dc0008b080bd80b582b000af78607b6800221c
:1010ec001a817b6800225a607b6800221a827b6816
:1010fc000022da60c046bd4602b080bd80b582b029
:10110c0000af786039603a68796840f2ec23c2f23b
:10111c0000031800fff78eff03001800bd4602b055
:10112c0080bd80b500af40f2ec23c2f20003180082
:10113c00fff761ff03001800bd4680bd80b500af0e
:10114c0040f2ec23c2f200031800fff7c3ffc046c5
:10115c00bd4680bd80b582b000af78607b685b69ae
:10116c005a1e9341dbb21800bd4602b080bd80b55b
:10117c0082b000af786039603b685bb13b681b683c
:10118c0043b13b689b882bb13b689b884ff6f87248
:10119c00934201d9002316e07b685b690bb10023f5
:1011ac0011e03b680022da803b6800221a817b68e0
:1011bc0000221a847b681833180000f0a6fe7b68a6
:1011cc003a685a6101231800bd4602b080bd80b553
:1011dc0082b000af78607a6840f2ec23c2f2000370
:1011ec0011001800fff7c3ff03001800bd4602b042
:1011fc0080bd80b500af40f2ec23c2f200031800b2
:10120c00fff7a8ff03001800bd4680bd80b500aff6
:10121c0040f2ec23c2f200031800fff7d5fdc046e4
:04122c00bd4680bd7e
:020000040000fa
:101230001b5b313b31482b2d2d2d2d2d2d2d2d2d93
:101240002d2d2d2d2d2d2d2d2d2d2d2d2d2d2d2dce
:101250002d2d2d2d2d2d2d2d2d2d2d2d2d2d2d2dbe
:101260002d2d2d2d2d2d2d2d2d2d2d2d2d2d2d2dae
:101270002d2d2d2d2d2d2d2d2d2d2d2b0d0a7c20a1
:10128000454545203135383a20456c6563747269af
:1012900063616c20616e6420456c656374726f6e6f
:1012a00069637320456e67696e656572696e672054
:1012b0004c61626f7261746f727920562020202019
:1012c0002020207c0d0a7c2020202020202020208f
:1012d0002041636164656d696320596561722032e4
:1012e0003032342d323032352c2053656d657374b5
:1012f0006572203120202020202020202020202046
:1013000020202020202020202020207c0d0a7c204e
:1013100020202020202020202020202020202020cd
:1013200020202020202020202020202020202020bd
:1013300020202020202020202020202020202020ad
:10134000202020202020202020202020202020209d
:101350002020207c0d0a7c20536f6c7574696f6ea1
:101360003a204772616465642045786572636973e9
:101370006520202020202020202020202020202028
:10138000202020202020202020202020202020205d
:1013900020202020202020202020207c0d0a7c20be
:1013a000202020202020202020202020202020203d
:1013b000202020202020202020202020202020202d
:1013c000202020202020202020202020202020201d
:1013d000202020202020202020202020202020200d
:1013e0002020207c0d0a7c20417574686f723a20a1
:1013f00020454545203135382048616e646c657262
:10140000732028416c6d6172696f2c2064652056d1
:10141000696c6c612c204e69657276612c20536971
:10142000736f6e2c205475736f29207c0d0a7c20fd
:10143000446174653a202020203231204f637420ab
:101440003230323420202020202020202020202054
:10145000202020202020202020202020202020208c
:10146000202020202020202020202020202020207c
:101470002020207c0d0a2b2d2d2d2d2d2d2d2d2db9
:101480002d2d2d2d2d2d2d2d2d2d2d2d2d2d2d2d8c
:101490002d2d2d2d2d2d2d2d2d2d2d2d2d2d2d2d7c
:1014a0002d2d2d2d2d2d2d2d2d2d2d2d2d2d2d2d6c
:1014b0002d2d2d2d2d2d2d2d2d2d2d2b0d0a0d0ae4
:1014c0000000c0461b5b313b31482b2d2d2d2d2daf
:1014d0002d2d2d2d2d2d2d2d2d2d2d2d2d2d2d2d3c
:1014e0002d2d2d2d2d2d2d2d2d2d2d2d2d2d2d2d2c
:1014f0002d2d2d2d2d2d2d2d2d2d2d2d2d2d2d2d1c
:101500002d2d2d2d2d2d2d2d2d2d2d2d2d2d2d2b0d
:101510000d0a7c20454545203135383a20456c651b
:101520006374726963616c20616e6420456c6563ed
:1015300074726f6e69637320456e67696e6565725c
:10154000696e67204c61626f7261746f72792056a8
:10155000202020202020207c0d0a7c2020202020fc
:10156000202020202041636164656d6963205965f6
:10157000617220323032342d323032352c205365b6
:101580006d6573746572203120202020202020207a
:101590002020202020202020202020202020207cef
:1015a0000d0a7c2020202020202020202020202008
:1015b000202020202020202020202020202020202b
:1015c000202020202020202020202020202020201b
:1015d000202020202020202020202020202020200b
:1015e000202020202020207c0d0a7c20536f6c7549
:1015f00074696f6e3a20477261646564204578654e
:101600007263697365202020202020202020202064
:1016100020202020202020202020202020202020ca
:101620002020202020202020202020202020207c5e
:101630000d0a7c2020202020202020202020202077
:10164000202020202020202020202020202020209a
:10165000202020202020202020202020202020208a
:10166000202020202020202020202020202020207a
:10167000202020202020207c0d0a7c2041757468c9
:101680006f723a2020454545203135382048616e3b
:10169000646c6572732028416c6d6172696f2c20d7
:1016a00064652056696c6c612c204e6965727661a8
:1016b0002c205369736f6e2c205475736f29207c16
:1016c0000d0a7c20446174653a20202020323120ac
:1016d0004f637420323032342020202020202020fc
:1016e00020202020202020202020202020202020fa
:1016f00020202020202020202020202020202020ea
:10170000202020202020207c0d0a2b2d2d2d2d2d5a
:101710002d2d2d2d2d2d2d2d2d2d2d2d2d2d2d2df9
:101720002d2d2d2d2d2d2d2d2d2d2d2d2d2d2d2de9
:101730002d2d2d2d2d2d2d2d2d2d2d2d2d2d2d2dd9
:101740002d2d2d2d2d2d2d2d2d2d2d2d2d2d2d2bcb
:101750000d0a0d0a4f6e2d626f61726420627574fe
:10176000746f6e3a205b52656c65617365645d0de4
:101770000a426c696e6b2053657474696e673a2017
:101780005b2020204f464620205d0d0a0000c04609
:10179000426c696e6b2053657474696e673a205ba6
:1017a0002020204f464620205d0d0a00426c696ec5
:1017b0006b2053657474696e673a205b2020534c2c
:1017c0004f5720205d0d0a00426c696e6b205365f7
:1017d0007474696e673a205b204d454449554d202d
:1017e0005d0d0a00426c696e6b2053657474696efe
:1017f000673a205b20204641535420205d0d0a00ab
:10180000426c696e6b2053657474696e673a205b35
:101810002020204f4e2020205d0d0a001b5b31321e
:101820003b31481b5b304b001b5b31313b31480087
:101830004f6e2d626f61726420627574746f6e3ac0
:10184000205b507265737365645d20004f6e2d627e
:101850006f61726420627574746f6e3a205b5265ba
:081860006c65617365645d00b5
:020000040000fa
:1018680080b582b000af78607b68882200211800bc
:1018780000f052fefff744f97b6876331a007b6864
:101888009a667b686c22102199527b68683318002d
:10189800fff79ffcc046bd4602b080bd80b582b050
:1018a80000af78600a00fb1c1a70fb1c1b789bb108
:1018b80040f20003c2f200031b78032b0cd840f25d
:1018c8000003c2f200031b780133dab240f20003ce
:1018d800c2f200031a7017e0fb1c1b780122534068
:1018e800dbb28bb140f20003c2f200031b785bb19c
:1018f80040f20003c2f200031b78013bdab240f267
:101908000003c2f200031a707a6841f61c03c0f2a1
:10191800000353607b680b221a8140f20003c2f275
:1019280000031b781a0040f24833c2f20003920009
:10193800d2587b68da6040f20003c2f200031b78d9
:101948001a0040f24833c2f200039200d35818003c
:1019580000f0c2fd03009ab27b681a827b680433e8
:1019680002211800fff7ccfb40f20003c2f200038b
:101978001b786bb943f20023c4f200035a6943f29f
:101988000023c4f2000348f200010a435a6116e03a
:1019980040f20003c2f200031b78042b0dd143f27e
:1019a8000023c4f200039a6943f20023c4f200033f
:1019b80048f200010a439a6101e0fef70efec046b4
:1019c800bd4602b080bdb0b584b000af78600e23cc
:1019d800fb1800221a800c23fb1800221a800a2305
:1019e800fb1800221a80fff7a6f8fef7f6fd40f272
:1019f8000403c2f200031b68abb97a6841f2c4431e
:101a0800c0f2000353607b6840f2c8221a817b68e9
:101a1800043301211800fff773fb40f20403c2f2fc
:101a2800000301221a600e257c19fef7d3ff03007c
:101a380023807b191b88002b3bd07b191b88012234
:101a48001340c3b17a6841f62803c0f2000353601b
:101a58007b6807221a817a6841f63003c0f20003d6
:101a6800d3607b681b221a827b680433022118002a
:101a7800fff746fb1de00e23fb181b8802221340cc
:101a8800bbb17a6841f62803c0f2000353607b6853
:101a980007221a817a6841f64c03c0f20003d3602a
:101aa8007b681b221a827b68043302211800fff727
:101ab80027fb7b686e229b5a9bb2012b29d10920f8
:101ac8003b187a687621525c1a700200bb181b78a2
:101ad800052b08d0bb181b781b2b0cd17b687822f0
:101ae8009b5c482b07d17b681b88012213439ab261
:101af8007b681a8006e07b681b88022213439ab22f
:101b08007b681a807b6870229b5a99b27b68742222
:101b180099527b681b881a00012313409bb3fff777
:101b280002fb03008bbb7b681b881bb2002b19dbf5
:101b38007a6841f23023c0f2000353607b6840f2b8
:101b480090221a817b681b88784a13439ab27b6873
:101b58001a807b686e22002199527b6868331800ce
:101b6800fff737fb7b68043301211800fff7c8fa39
:101b780003005bb17b681b8847f6fe7213409ab27c
:101b88007b681a8002e0c04600e0c0467b681b887c
:101b98001a0002231340002b00d1bfe0fff7c3fa5d
:101ba8000300002b00d0bbe07b681b881bb2002b16
:101bb80000da99e008203b187a687621525c1a709e
:101bc8003b181b781b2b25d17b6877229b5c5b2bf2
:101bd80000d06ce07b6878229b5c432b0dd0442bb3
:101be80069d141f60043c4f2002300229a827b683f
:101bf80000211800fff752fe5ae041f60043c4f2f4
:101c0800002300229a827b6801211800fff746fe14
:101c1800c0464de00822bb181b78612b03d0bb18c7
:101c28001b78412b15d141f60043c4f20023002252
:101c38009a82c04641f60043c4f200231b69102271
:101c48001340002bf6d17b6800211800fff726fe11
:101c58002ee00822bb181b78442b03d0bb181b7836
:101c6800642b15d141f60043c4f2002300229a8266
:101c7800c04641f60043c4f200231b6910221340fa
:101c8800002bf6d17b6801211800fff707fe0fe053
:101c98007b681b88022213439ab27b681a807b6890
:101ca80070229b5a99b27b687422995203e0c0460d
:101cb80001e0fef740fffff736fa0300002bf8d1ea
:101cc8007b686e22002199527b6868331800fff701
:101cd80080fa7b681b88154a13439ab27b681a807e
:101ce8007b687422002199527b6804330321180011
:101cf800fff706fa0300abb17b686e220021995208
:101d08007b6868331800fff764fa7b681b8847f61e
:101d1800fd7213409ab27b681a8002e0c04600e068
:101d2800c046c046c046bd4604b0b0bd0080fffff7
:101d380080b5a2b000af3b001800fff791fd3b0053
:081d48001800fff740fefae766
:020000040000fa
:101d500080b582b000af786019e07b685b6843f2c1
:101d60000062ccf265429a187b685a607b681b68f7
:101d7000013305d07b681b685a1c7b681a6006e03b
:101d80007a684cf6ff13c3f69a33536007e07b681a
:101d90005a684cf6ff13c3f69a339a42ddd8c04610
:101da000bd4602b080bd80b582b000af78603960ba
:101db0007b681a683b681b689a4202d201235b4227
:101dc00019e07b681a683b681b689a4201d90123b5
:101dd00011e07b685a683b685b689a4202d2012333
:101de0005b4208e07b685a683b685b689a4201d9ad
:101df000012300e000231800bd4602b080bd80b57d
:101e000082b000af3a0040f23433c2f2000303cb99
:101e100003c23b005b6844f64032c0f24c029a18a1
:101e20003b005a600de03b005b6843f20062ccf27d
:101e300065429a183b005a603b001b685a1c3b00e5
:101e40001a603b005a684cf6ff13c3f69a339a4265
:101e5000e9d840f23c33c2f200031b685a1c40f23e
:101e60003c33c2f200031a6040f23433c2f2000382
:101e70003a0003ca03c340f23c33c2f200031b68ba
:101e80005a1c40f23c33c2f200031a604ef21003b7
:101e9000cef2000348f25812c0f215029a60c04612
:101ea000bd4602b080bd80b500af4ef21003cef249
:101eb00000034ef660225a604ef21003cef2000389
:101ec00048f25812c0f215029a604ef21003cef298
:101ed000000307221a60c046bd4680bd80b584b0ad
:101ee00000af786040f23c33c2f200031b68fb6035
:101ef0007a6840f23433c2f2000303cb03c240f2eb
:101f00003c33c2f200031b68fa689a42ead1c04629
:101f1000bd4604b080bd90b587b000af78604ef28a
:101f20001003cef200039b684ef66022d31a7b6149
:101f30000c243b191800fff7d1ff20003b1859680b
:101f40007a6913005b019b1a9b009b18db001a0047
:101f50000c23b2fbf3f3ca183b185a600ee00c21b5
:101f60007b185b6843f20062ccf265429a187b18da
:101f70005a607b181b685a1c7b181a600c217b184e
:101f80005a684cf6ff13c3f69a339a42e7d87b6837
:101f90007a1803ca03c3c046bd4607b090bd80b5da
:101fa00088b000aff860b9607a6014217b18002215
:101fb0001a607b1800225a600023fb61bb681a6814
:101fc0007b681b689a4207d2bb681a687b681b68eb
:101fd000d21a7b181a6007e0bb681a687b681b6816
:101fe000d21a1423fb181a60bb681a687b681b6836
:101ff0009a4233d27b681a68bb681b68d31afb61ac
:1020000015e0fb6943f2006cccf2654c6344fb6164
:102010001422bb181b6823b9bb18012252421a6054
:1020200005e014217b181b685a1e7b181a60fa6998
:102030004cf6ff13c3f69a339a42e2d81422bb1827
:102040001b6823b9bb18012252421a600ee014210a
:102050007b181b685a1e7b181a6007e0bb685a6819
:102060007b685b68d21a1423fb185a60fb68142241
:0e207000ba1803ca03c3c046bd4608b080bdff
:020000040000fa
:10207e0006d128b9f54203d800d30ab96d0d09d19e
:10208e000020c143090dc904f0bdf9d11242f7d1a8
:10209e00640df5d00020c14349054908a6e0002093
:1020ae006146f0bdf0b50127ff070e005e403e40d1
:1020be00b446be0a4c18dd18f442d9d2f542e4d229
:1020ce00640decd06d0dead06419c9023943460d8a
:1020de00c0023143db023b43db0a10b48e4685b2ad
:1020ee0097b26f43140c6c433e0ca419260c2404b7
:1020fe00bfb227439cb26c43a419190c6943250c3b
:10210e00a4b249190d04090c6419000c95b245438b
:10211e003e0c76193743bfb2360c150c4543ad193c
:10212e00a6b2240cad192e0437432e0c36199db2cf
:10213e004543ad19acb22e0c89191d0c45436d18d3
:10214e002e04290c3443704680b295b245433e0ca2
:10215e0076193743bfb2360c150c4543ad19a6b2ee
:10216e00ad19240c2e0437432e0c36199db245435f
:10217e00ad19acb22e0c89191d0c45436d182e04e9
:10218e003443290c75462d0c90b268433e0c8019d1
:10219e000604bfb23e43070ca0b23f18120c6a43ae
:1021ae00d019020c80b2240ca4189ab26a431219e8
:1021be0014042043120c89181b0c6b43c91810bc55
:1021ce0001273d05294203d1b61940414941013c41
:1021de00ff077d0d013d641b0bdb6d00ac4209da80
:1021ee00240500254208be416841614166463143df
:0621fe00f0bd54e74ee7be
:020000040000fa
:102204005c03002004000000010000000000000046
:10221400180300201c0000000000000060030020e0
:1022240004000000010000008e5b00009a02002000
:102234000200000000000000340300200c00000035
:1022440000000000ec0200202c0000000000000050
:102254004803002014000000010000009017000053
:10226400ac170000c8170000e417000000180000b5
:10227400000000209902000000000000400300203c
:1022840004000000000000009c0200205000000038
:1022940000000000440300200400000000000000cf
:1022a400640300200400000001000000000000009e
:1022b40000000000000000006666666666666666ea
:020000040000fa
:1022c40040f20003c0f2000323b140f20003c0f265
:1022d4000003984740f20003c0f2000323b140f228
:1022e4000003c0f20003984700f0b6f840f2000380
:1022f400c0f200037f2293434ef60052cef2000256
:10230400936042f24533c0f20003984740f2000361
:10231400c0f2000323b140f20003c0f20003984767
:1023240040f20003c0f2000323b140f20003c0f204
:0e2334000003984700210020fff7fcfcfee7a5
:020000040000fa
:02234200fee7b4
:020000040000fa
:1023440000230e4a10b513600d4a0e4c13600e4a5a
:1023540013600e4a13600e4a13600e4a53621361ef
:102364000133936000f0eff800f0edf80a4b9c4263
:1023740000d310bd08cc9847f8e7c04644030020ba
:10238400a802002068010000a40200209c02002092
:0c239400a0020020ac0200206c01000040
:020000040000fa
:1023a00010b5054c227832b9044b13b1044800e053
:1023b00000bf0123237010bd18030020000000009f
:1023c00000000000034b10b51bb10349034800e0b7
:1023d00000bf10bd000000001c0300200000000032
:020000040000fa
:1023e00030b401256d054c00e54215d85c00e5428e
:1023f00012d80c001c436400044314430cd005d2d3
:1024000082428b418041404230bc704790429941aa
:0e2410008041404230bc7047002030bc704715
:020000040000fa
:10241e0030b401256d054c00e54215d85c00e5424f
:10242e0012d80c001c436400044314430cd005d294
:10243e00904299418041404230bc704782428b416c
:0e244e008041404230bc7047002030bc7047d7
:020000040000fa
:10245c0010b50948016811b9436803b910bd0400ef
:10246c008368064a9bb20c349b009b584268200040
:10247c00984780002018ede7042200000c2500008e
:020000040000fa
:10248c00002310b5934206d103201840421e904100
:0e249c009b08c01810bdc45ccc540133f2e79d
:020000040000fa
:1024aa0042f2c743c0f20003004206d5404200b5db
:0c24ba00984708bc0122d20711431847c4
:020000040000fa
:1024c60040f21d42010007d002d4013a0018fcd5a3
:0a24d6001205c30a4005991870476b
:020000040000fa
:1024e000037833b1030001331a78002afbd1181a9c
:0824f00070470020fce7c04624
:020000040000fa
:1024f8000006000010060000de060000ac07000021
:042508006a0800005d
:020000040000fa
:10250c00352500008d2400004725000047250000dc
:04251c00472500004f
:020000040000fa
:1025200032b10300c9b28218197001339342fbd152
:042530007047c046ea
:020000040000fa
:102534008a18914201d10020704700230b700131a9
:02254400f7e7b7
:020000040000fa
:0425460000207047ba
:020000040000fa
:02254a007047d8
:00000001FF
